:020000040800F2
:1000000068060020CD010008BD040008D9030008DF
:10001000B904000887020008050800080000000075
:100020000000000000000000000000005106000871
:100030008B02000800000000BF04000865070008EC
:10004000E7010008E7010008E7010008E7010008F0
:10005000E7010008E7010008E7010008E7010008E0
:10006000E7010008E7010008E7010008E7010008D0
:10007000E7010008E7010008E7010008E7010008C0
:10008000E7010008E7010008E7010008E7010008B0
:10009000E7010008E7010008E7010008E7010008A0
:1000A000E7010008E7010008E7010008E701000890
:1000B000E7010008E7010008E7010008E701000880
:1000C000E7010008E7010008E7010008E701000870
:1000D000E7010008E7010008E7010008E701000860
:1000E000E7010008E7010008E7010008E701000850
:1000F000E7010008E7010008E7010008E701000840
:10010000E7010008E7010008E7010008E70100082F
:10011000E7010008E7010008E7010008E70100081F
:10012000E7010008E7010008E7010008E70100080F
:1001300000F002F800F03AF80AA090E8000C8244BF
:100140008344AAF10107DA4501D100F02FF8AFF29C
:10015000090EBAE80F0013F0010F18BFFB1A43F0A5
:10016000010318475C0700007C070000103A24BF19
:1001700078C878C1FAD8520724BF30C830C144BF0C
:1001800004680C607047000000230024002500264E
:10019000103A28BF78C1FBD8520728BF30C148BFEA
:1001A0000B6070471FB51FBD10B510BD00F031F8D2
:1001B0001146FFF7F7FF00F04DFB00F04FF803B4D6
:1001C000FFF7F2FF03BC00F057F800000948804732
:1001D00009480047FEE7FEE7FEE7FEE7FEE7FEE729
:1001E000FEE7FEE7FEE7FEE704480549054A064B41
:1001F00070470000A50700083101000868000020D2
:1002000068060020680200206802002070477047DE
:100210007047754600F02CF8AE4605006946534617
:1002200020F00700854618B020B5FFF7DDFFBDE8D8
:1002300020404FF000064FF000074FF000084FF04D
:10024000000B21F00701AC46ACE8C009ACE8C009DE
:10025000ACE8C009ACE8C0098D46704710B504464B
:10026000AFF300802046BDE81040FFF7A8BF0000B4
:10027000004870470800002001491820ABBEFEE787
:1002800026000200704700BFFEE7704700EBC00188
:10029000C9004FF0E02251610021916105211161F7
:1002A00000BF4FF0E021096901F480310029F8D046
:1002B00004214FF0E022116170472DE9F041024620
:1002C00000250026002000230024002791F803C009
:1002D0000CF00F0591F803C00CF0100CBCF1000FEE
:1002E00003D091F802C04CEA050591F800C0BCF1BA
:1002F000000F31D0146800202BE04FF0010C0CFAF5
:1003000000F3B1F800C00CEA03069E4220D183003E
:100310004FF00F0C0CFA03F7BC4305FA03FC4CEA50
:10032000040491F803C0BCF1280F06D14FF0010C72
:100330000CFA00FCC2F814C00AE091F803C0BCF14A
:10034000480F05D14FF0010C0CFA00FCC2F810C0A8
:10035000401C0828D1D31460B1F800C0BCF1FF0FD5
:1003600034DD546800202EE000F1080C4FF0010845
:1003700008FA0CF3B1F800C00CEA03069E4221D142
:1003800083004FF00F0C0CFA03F7BC4305FA03FC93
:100390004CEA040491F803C0BCF1280F05D100F128
:1003A000080C08FA0CF8C2F8148091F803C0BCF1EC
:1003B000480F07D100F1080C4FF0010808FA0CF8BB
:1003C000C2F81080401C0828CED35460BDE8F081EC
:1003D000416170470161704700BFFEE708B5012128
:1003E000442000F06DF80120ADF8000028208DF8C1
:1003F000030069460648FFF760FF1C20ADF80000C7
:1004000048208DF8030069460248FFF756FF08BDF3
:10041000000801400018014010B50446012C01D12C
:10042000224908702148007801282AD12048006814
:1004300001280AD01F48006838B11E48001F006814
:1004400018B11C4808380068D8B90A2000F0DCF957
:1004500000201649087016480068012800D110BD18
:100460001448006808B90220F9E71248001F006824
:1004700008B90320F3E70F4808380068A0B9042042
:10048000EDE70B48006878B90A48006801280BD1ED
:100490000848001F0068012806D10648083800688F
:1004A000012801D1014908700020D8E7050000208B
:1004B000000121421001234200BFFEE77047704750
:1004C00029B1064A92690243044B9A6104E0034A47
:1004D00092698243014B9A6170470000001002400C
:1004E00070B504460D46082C5DD2DFE804F0040F19
:1004F0001A25303B46514FF4E0412F48FFF768FF83
:100500004FF400612C48FFF765FF4DE04FF4C04108
:100510002948FFF75DFF4FF4C0512748FFF75AFF06
:1005200042E04FF4D0412448FFF752FF4FF480518E
:100530002148FFF74FFF37E04FF490411E48FFF787
:1005400047FF4FF440511C48FFF744FF2CE04FF4A5
:10055000B0411948FFF73CFF4FF400511648FFF730
:1005600039FF21E04FF4C0511348FFF731FF4FF43A
:10057000C0411148FFF72EFF16E04FF460510E48BE
:10058000FFF726FF4FF480410B48FFF723FF0BE0F6
:100590004FF440510848FFF71BFF4FF490410648C5
:1005A000FFF718FF00E000BF00BF2846FFF76EFE10
:1005B00000F044F870BD0000000C01402DE9F0414E
:1005C00005460C46164660022D21B0FBF1F087B2BD
:1005D00032463946284600F003F8BDE8F0810000B5
:1005E0002DE9F04104460D46164600271FE0012C78
:1005F0000BD111480078401C0F490870084600785C
:1006000007280DDD002008700AE00B48007810B9BB
:1006100008200949087008480078401E06490870FB
:10062000314605480078FFF75BFF781C87B2AF4280
:10063000DDDBBDE8F08100000400002010B54FF4C0
:10064000F0410248FFF7C4FE10BD0000000C01405D
:10065000704710B500F002F810BD00000CB5002086
:10066000019000903348006840F4803031490860C0
:1006700000BF3048006800F4003000900198401C32
:100680000190009818B90198B0F5A06FF1D12948F0
:10069000006800F4003010B10120009001E000205B
:1006A00000900098012843D12348006840F01000D2
:1006B000214908600846006820F0030008600846E9
:1006C000006840F0020008601A4840681949486014
:1006D0000846406848600846406840F480604860CA
:1006E0000846406820F47C1048600846406840F4A2
:1006F000E81048600846006840F08070086000BF5D
:100700000C48006800F000700028F9D009484068E3
:1007100020F00300074948600846406840F00200A6
:10072000486000BF0348406800F00C000828F9D179
:100730000CBD00000010024000200240042808D137
:100740004FF0E021096941F004014FF0E02211610E
:1007500007E04FF0E021096921F004014FF0E022A9
:10076000116170477047000010B504466FF0040037
:10077000FFF7E4FFE11704EB5171C1F3C701074A2A
:1007800011701046007800EB4001C1EBC0104FF62D
:10079000FF7101EAC0000249088010BD000000207E
:1007A0000200002010B51348006840F00100114914
:1007B000086008464068104908400E4948600846ED
:1007C00000680E4908400B4908600846006820F49C
:1007D000802008600846406820F4FE0048604FF41E
:1007E0001F008860FFF735FF4FF000600449086084
:1007F00010BD0000001002400000FFF8FFFFF6FEF1
:1008000008ED00E000BFFEE70146114A12884A43A6
:100810004FF0E0235A6100229A611A46126942F0B1
:1008200001021A6100BF4FF0E022106900F00102DE
:100830001AB100F48032002AF5D04FF0E02212699C
:1008400022F001024FF0E0231A6100229A61704702
:10085000020000204820FFF787FF00F019F8FFF79B
:10086000BDFD14E00020FFF7D7FD0446022C06D1A1
:1008700040F2DC52C8210120FFF7A0FE07E0032C64
:1008800005D140F2DC52C8210020FFF797FEE9E7CE
:1008900008B501210820FFF713FE4FF4F040ADF832
:1008A000000010208DF8030003208DF80200694637
:1008B0000248FFF702FDFFF7C1FE08BD000C014032
:1008C000E008000800000020080000006C0100089B
:1008D000E808000808000020600600008801000801
:0808E00000000000000100000F
:0400000508000131BD
:00000001FF
