:020000040800F2
:1000000080060020CD0100083D060008CF0400084E
:10001000B1050008B3030008890A000800000000C9
:10002000000000000000000000000000350700088C
:10003000B7030008000000003F060008F9080008A8
:10004000E7010008E7010008E7010008E7010008F0
:10005000E7010008E7010008E7010008E7010008E0
:10006000E7010008E7010008E7010008E7010008D0
:10007000E7010008E7010008E7010008E7010008C0
:10008000E7010008E7010008E7010008E7010008B0
:10009000E7010008E7010008E7010008E7010008A0
:1000A000E7010008E7010008E7010008E701000890
:1000B000E7010008E7010008E7010008E701000880
:1000C000E7010008E7010008E7010008E701000870
:1000D000E7010008E7010008E7010008E701000860
:1000E000E7010008E7010008E7010008E701000850
:1000F000E7010008E7010008E7010008E701000840
:10010000E7010008E7010008E7010008E70100082F
:10011000E7010008E7010008E7010008E70100081F
:10012000E7010008E7010008E7010008E70100080F
:1001300000F002F800F03AF80AA090E8000C8244BF
:100140008344AAF10107DA4501D100F02FF8AFF29C
:10015000090EBAE80F0013F0010F18BFFB1A43F0A5
:1001600001031847D0090000F0090000103A24BF2D
:1001700078C878C1FAD8520724BF30C830C144BF0C
:1001800004680C607047000000230024002500264E
:10019000103A28BF78C1FBD8520728BF30C148BFEA
:1001A0000B6070471FB51FBD10B510BD00F0C7F83C
:1001B0001146FFF7F7FF00F08FFC00F0E5F803B4FD
:1001C000FFF7F2FF03BC00F0EDF80000094880479C
:1001D00009480047FEE7FEE7FEE7FEE7FEE7FEE729
:1001E000FEE7FEE7FEE7FEE704480549054A064B41
:1001F0007047000039090008310100088000002024
:1002000080060020800200208002002010B5431CE0
:1002100002E010F8011B71B18107FAD14FF00132F1
:1002200002C88C1A8C4314EAC211F9D0C01A0A060B
:1002300003D0C01E10BDC01A10BD0A0401D0801E1C
:1002400010BD0902FCD0401E10BD032A40F23080D0
:1002500010F0030C00F0158011F8013BBCF1020F07
:10026000624498BF11F801CB00F8013B38BF11F888
:10027000013BA2F1040298BF00F801CB38BF00F89F
:10028000013B11F0030300F02880083AC0F0088019
:1002900051F8043B083A51F804CBA0E80810F5E700
:1002A000121D5CBF51F8043B40F8043BAFF30080E3
:1002B000D20724BF11F8013B11F801CB48BF11F858
:1002C000012B24BF00F8013B00F801CB48BF00F828
:1002D000012B704770477047704710B5203AC0F047
:1002E0000B80B1E81850203AA0E81850B1E8185037
:1002F000A0E81850BFF4F5AF5FEA027C24BFB1E874
:100300001850A0E8185044BF18C918C0BDE81040E4
:100310005FEA827C24BF51F8043B40F8043B08BFED
:100320007047D20728BF31F8023B48BF11F8012BB4
:1003300028BF20F8023B48BF00F8012B70477546E4
:1003400000F02CF8AE4605006946534620F0070041
:10035000854618B020B5FFF747FFBDE820404FF0B5
:1003600000064FF000074FF000084FF0000B21F09F
:100370000701AC46ACE8C009ACE8C009ACE8C0096C
:10038000ACE8C0098D46704710B50446AFF3008055
:100390002046BDE81040FFF712BF0000004870473C
:1003A0001C00002001491820ABBEFEE72600020019
:1003B000704700BFFEE770472DE9F0410246002577
:1003C0000026002000230024002791F803C00CF031
:1003D0000F0591F803C00CF0100CBCF1000F03D016
:1003E00091F802C04CEA050591F800C0BCF1000F7D
:1003F00031D0146800202BE04FF0010C0CFA00F310
:10040000B1F800C00CEA03069E4220D183004FF0F1
:100410000F0C0CFA03F7BC4305FA03FC4CEA040486
:1004200091F803C0BCF1280F06D14FF0010C0CFA73
:1004300000FCC2F814C00AE091F803C0BCF1480FF8
:1004400005D14FF0010C0CFA00FCC2F810C0401CA2
:100450000828D1D31460B1F800C0BCF1FF0F34DD1F
:10046000546800202EE000F1080C4FF0010808FA53
:100470000CF3B1F800C00CEA03069E4221D18300C0
:100480004FF00F0C0CFA03F7BC4305FA03FC4CEADF
:10049000040491F803C0BCF1280F05D100F1080C49
:1004A00008FA0CF8C2F8148091F803C0BCF1480FA8
:1004B00007D100F1080C4FF0010808FA0CF8C2F857
:1004C0001080401C0828CED35460BDE8F08100BFE6
:1004D000FEE7000008B50121442000F0B1F801203A
:1004E000ADF8000028208DF8030069460648FFF7A4
:1004F00063FF1C20ADF8000048208DF8030069461A
:100500000248FFF759FF08BD0008014000180140EC
:1005100010B50446012C01D1224908702148007809
:1005200001282AD12048006801280AD01F48006805
:1005300038B11E48001F006818B11C480838006810
:10054000D8B90A2000F0A2FA00201649087016480F
:100550000068012800D110BD1448006808B90220C5
:10056000F9E71248001F006808B90320F3E70F48B5
:1005700008380068A0B90420EDE70B48006878B996
:100580000A48006801280BD10848001F00680128AC
:1005900006D1064808380068012801D101490870D1
:1005A0000020D8E71800002000012142100123425A
:1005B00000BFFEE700B585B00121042000F040F83F
:1005C0000121880300F03CF848208DF813004FF417
:1005D0008060ADF8100003208DF8120004A91548C2
:1005E000FFF7EAFE18208DF813004FF40070ADF805
:1005F000100003208DF8120004A90E48FFF7DCFE5E
:100600004FF4165000900020ADF80C000820ADF813
:100610000A000020ADF80800ADF80600ADF80400AF
:100620006946054800F0C4F90121034800F0B4F917
:1006300005B000BD00080140003801407047704718
:1006400029B1064A92690243044B9A6104E0034AC5
:1006500092698243014B9A6170470000001002408A
:1006600030B500210022002400232D4D6D6805F0D7
:100670000C0121B1042905D0082923D105E0294D19
:10068000056022E0274D05601FE0254D6D6805F4EB
:100690007012234D6D6805F48034022505EB9242FB
:1006A0001CB9214D554305600BE01D4D6D6805F4E7
:1006B00000351DB11C4D5543056002E0194D5543F1
:1006C000056002E0174D056000BF00BF144D6D6866
:1006D00005F0F0010909154D6B5C0568DD404560CA
:1006E0000F4D6D6805F4E061090A104D6B5C4568BB
:1006F000DD4085600A4D6D6805F46051C90A0B4DF7
:100700006B5C4568DD40C560054D6D6805F4404192
:10071000890B074D6B5CC568B5FBF3F5056130BD12
:100720000010024000127A0000093D000000002085
:100730001000002070472DE9F0418EB080460E4633
:10074000002700243046FFF761FDC5B2FD208DF87B
:10075000040000208DF80500E81CC0B28DF80600EA
:1007600001208DF8070040EA0810C0B28DF808009B
:1007700000BF03E001A8005D4740641C052CF9D3CD
:10078000002402E0305D4740641CAC42FAD32A46A4
:1007900031460DF10900FFF758FD681D01A90F54FE
:1007A000A81DC1B201A800F011F80EB0BDE8F0819B
:1007B00000BF0549098801F040010029F9D002492C
:1007C000091D0880704700000038014030B502461E
:1007D0000B46002405E012F8010BFFF7E9FF601C4F
:1007E000C4B29C42F7DB30BD10B500F001F810BD7B
:1007F0000CB50020019000903348006840F4803030
:100800003149086000BF3048006800F400300090B3
:100810000198401C0190009818B90198B0F5A06F9C
:10082000F1D12948006800F4003010B10120009097
:1008300001E0002000900098012843D1234800687F
:1008400040F01000214908600846006820F00300CD
:1008500008600846006840F0020008601A484068D6
:10086000194948600846406848600846406840F4B6
:10087000806048600846406820F47C104860084664
:10088000406840F4E81048600846006840F0807016
:10089000086000BF0C48006800F000700028F9D024
:1008A0000948406820F0030007494860084640684E
:1008B00040F00200486000BF0348406800F00C00B0
:1008C0000828F9D10CBD00000010024000200240B1
:1008D000042808D14FF0E021096941F004014FF0EC
:1008E000E022116107E04FF0E021096921F00401E5
:1008F0004FF0E022116170477047000010B50446C8
:100900006FF00400FFF7E4FFE11704EB5171C1F34E
:10091000C701074A11701046007800EB4001C1EB97
:10092000C0104FF6FF7101EAC0000249088010BDF7
:10093000140000201600002010B51348006840F095
:1009400001001149086008464068104908400E49F6
:100950004860084600680E4908400B490860084690
:10096000006820F4802008600846406820F4FE00FB
:1009700048604FF41F008860FFF736FF4FF00060BB
:100980000449086010BD0000001002400000FFF89C
:10099000FFFFF6FE08ED00E021B1828942F400522B
:1009A000828104E082894DF6FF731A40828170478C
:1009B0002DE9F04786B005460E460024A24600BF4A
:1009C000A1460027B08900B100BF2F462C8A4CF603
:1009D000FF700440F08804432C82AC894EF6F3107B
:1009E0000440B08831890843718908430443AC81CD
:1009F000AC8A4FF6FF400440B0890443AC8201A8A2
:100A0000FFF72EFE1F48874202D1DDF810A001E05B
:100A1000DDF80CA0A88900F4004040B10AEBCA0040
:100A200000EB0A1031684900B0FBF1F807E00AEB6F
:100A3000CA0000EB0A1031688900B0FBF1F86420AD
:100A4000B8FBF0F004012009642101FB1089A8899A
:100A500000F4004040B1322000EBC900B0FBF1F0DF
:100A600000F00700044308E0322000EB0910642185
:100A7000B0FBF1F000F00F0004432C8106B0BDE89C
:100A8000F08700000038014000BFFEE70146114A30
:100A900012884A434FF0E0235A6100229A611A46B5
:100AA000126942F001021A6100BF4FF0E0221069A2
:100AB00000F001021AB100F48032002AF5D04FF0A4
:100AC000E022126922F001024FF0E0231A610022B5
:100AD0009A617047160000204820FFF70FFFFFF7CC
:100AE00069FDFFF7F7FC10E00020FFF711FD044659
:100AF000022C04D105A10020FFF71DFE05E0032C08
:100B000003D107A10020FFF716FEEDE75B76315D0C
:100B10005B6D315D5B74355DB4F2BFAA000000000F
:100B20005B76315D5B6D315D5B74355DB9D8B1D598
:100B300000000000540B0008000000201C00000012
:100B40006C010008700B00081C0000206406000007
:100B500088010008000000000102030401020304F0
:100B60000607080902040608000000000100000052
:0400000508000131BD
:00000001FF
